{
  "contractName": "DB",
  "abi": [
    {
      "constant": false,
      "inputs": [],
      "name": "renounceOwnership",
      "outputs": [],
      "payable": false,
      "stateMutability": "nonpayable",
      "type": "function"
    },
    {
      "constant": true,
      "inputs": [
        {
          "name": "",
          "type": "uint256"
        }
      ],
      "name": "permittedContractsAddresses",
      "outputs": [
        {
          "name": "",
          "type": "address"
        }
      ],
      "payable": false,
      "stateMutability": "view",
      "type": "function"
    },
    {
      "constant": false,
      "inputs": [],
      "name": "destroy",
      "outputs": [],
      "payable": false,
      "stateMutability": "nonpayable",
      "type": "function"
    },
    {
      "constant": true,
      "inputs": [],
      "name": "owner",
      "outputs": [
        {
          "name": "",
          "type": "address"
        }
      ],
      "payable": false,
      "stateMutability": "view",
      "type": "function"
    },
    {
      "constant": true,
      "inputs": [],
      "name": "isOwner",
      "outputs": [
        {
          "name": "",
          "type": "bool"
        }
      ],
      "payable": false,
      "stateMutability": "view",
      "type": "function"
    },
    {
      "constant": true,
      "inputs": [
        {
          "name": "",
          "type": "address"
        }
      ],
      "name": "permissionStatusForContract",
      "outputs": [
        {
          "name": "",
          "type": "bool"
        }
      ],
      "payable": false,
      "stateMutability": "view",
      "type": "function"
    },
    {
      "constant": false,
      "inputs": [
        {
          "name": "newOwner",
          "type": "address"
        }
      ],
      "name": "transferOwnership",
      "outputs": [],
      "payable": false,
      "stateMutability": "nonpayable",
      "type": "function"
    },
    {
      "constant": false,
      "inputs": [
        {
          "name": "_recipient",
          "type": "address"
        }
      ],
      "name": "destroyAndSend",
      "outputs": [],
      "payable": false,
      "stateMutability": "nonpayable",
      "type": "function"
    },
    {
      "inputs": [],
      "payable": false,
      "stateMutability": "nonpayable",
      "type": "constructor"
    },
    {
      "anonymous": false,
      "inputs": [
        {
          "indexed": true,
          "name": "previousOwner",
          "type": "address"
        },
        {
          "indexed": true,
          "name": "newOwner",
          "type": "address"
        }
      ],
      "name": "OwnershipTransferred",
      "type": "event"
    },
    {
      "constant": true,
      "inputs": [
        {
          "name": "recordFieldName",
          "type": "bytes32"
        }
      ],
      "name": "getAddressValue",
      "outputs": [
        {
          "name": "",
          "type": "address"
        }
      ],
      "payable": false,
      "stateMutability": "view",
      "type": "function"
    },
    {
      "constant": false,
      "inputs": [
        {
          "name": "recordFieldName",
          "type": "bytes32"
        },
        {
          "name": "value",
          "type": "address"
        }
      ],
      "name": "setAddressValue",
      "outputs": [],
      "payable": false,
      "stateMutability": "nonpayable",
      "type": "function"
    },
    {
      "constant": false,
      "inputs": [
        {
          "name": "recordFieldName",
          "type": "bytes32"
        }
      ],
      "name": "deleteAddressValue",
      "outputs": [],
      "payable": false,
      "stateMutability": "nonpayable",
      "type": "function"
    },
    {
      "constant": true,
      "inputs": [
        {
          "name": "recordFieldName",
          "type": "bytes32"
        }
      ],
      "name": "getBoolValue",
      "outputs": [
        {
          "name": "",
          "type": "bool"
        }
      ],
      "payable": false,
      "stateMutability": "view",
      "type": "function"
    },
    {
      "constant": false,
      "inputs": [
        {
          "name": "recordFieldName",
          "type": "bytes32"
        },
        {
          "name": "value",
          "type": "bool"
        }
      ],
      "name": "setBoolValue",
      "outputs": [],
      "payable": false,
      "stateMutability": "nonpayable",
      "type": "function"
    },
    {
      "constant": false,
      "inputs": [
        {
          "name": "recordFieldName",
          "type": "bytes32"
        }
      ],
      "name": "deleteBoolValue",
      "outputs": [],
      "payable": false,
      "stateMutability": "nonpayable",
      "type": "function"
    },
    {
      "constant": true,
      "inputs": [
        {
          "name": "recordFieldName",
          "type": "bytes32"
        }
      ],
      "name": "getBytesValue",
      "outputs": [
        {
          "name": "",
          "type": "bytes"
        }
      ],
      "payable": false,
      "stateMutability": "view",
      "type": "function"
    },
    {
      "constant": false,
      "inputs": [
        {
          "name": "recordFieldName",
          "type": "bytes32"
        },
        {
          "name": "value",
          "type": "bytes"
        }
      ],
      "name": "setBytesValue",
      "outputs": [],
      "payable": false,
      "stateMutability": "nonpayable",
      "type": "function"
    },
    {
      "constant": false,
      "inputs": [
        {
          "name": "recordFieldName",
          "type": "bytes32"
        }
      ],
      "name": "deleteBytesValue",
      "outputs": [],
      "payable": false,
      "stateMutability": "nonpayable",
      "type": "function"
    },
    {
      "constant": true,
      "inputs": [
        {
          "name": "recordFieldName",
          "type": "bytes32"
        }
      ],
      "name": "getBytes32Value",
      "outputs": [
        {
          "name": "",
          "type": "bytes32"
        }
      ],
      "payable": false,
      "stateMutability": "view",
      "type": "function"
    },
    {
      "constant": false,
      "inputs": [
        {
          "name": "recordFieldName",
          "type": "bytes32"
        },
        {
          "name": "value",
          "type": "bytes32"
        }
      ],
      "name": "setBytes32Value",
      "outputs": [],
      "payable": false,
      "stateMutability": "nonpayable",
      "type": "function"
    },
    {
      "constant": false,
      "inputs": [
        {
          "name": "recordFieldName",
          "type": "bytes32"
        }
      ],
      "name": "deleteBytes32Value",
      "outputs": [],
      "payable": false,
      "stateMutability": "nonpayable",
      "type": "function"
    },
    {
      "constant": true,
      "inputs": [
        {
          "name": "recordFieldName",
          "type": "bytes32"
        }
      ],
      "name": "getIntValue",
      "outputs": [
        {
          "name": "",
          "type": "int256"
        }
      ],
      "payable": false,
      "stateMutability": "view",
      "type": "function"
    },
    {
      "constant": false,
      "inputs": [
        {
          "name": "recordFieldName",
          "type": "bytes32"
        },
        {
          "name": "value",
          "type": "int256"
        }
      ],
      "name": "setIntValue",
      "outputs": [],
      "payable": false,
      "stateMutability": "nonpayable",
      "type": "function"
    },
    {
      "constant": false,
      "inputs": [
        {
          "name": "recordFieldName",
          "type": "bytes32"
        }
      ],
      "name": "deleteIntValue",
      "outputs": [],
      "payable": false,
      "stateMutability": "nonpayable",
      "type": "function"
    },
    {
      "constant": true,
      "inputs": [
        {
          "name": "recordFieldName",
          "type": "bytes32"
        }
      ],
      "name": "getUIntValue",
      "outputs": [
        {
          "name": "",
          "type": "uint256"
        }
      ],
      "payable": false,
      "stateMutability": "view",
      "type": "function"
    },
    {
      "constant": false,
      "inputs": [
        {
          "name": "recordFieldName",
          "type": "bytes32"
        },
        {
          "name": "value",
          "type": "uint256"
        }
      ],
      "name": "setUIntValue",
      "outputs": [],
      "payable": false,
      "stateMutability": "nonpayable",
      "type": "function"
    },
    {
      "constant": false,
      "inputs": [
        {
          "name": "recordFieldName",
          "type": "bytes32"
        },
        {
          "name": "value",
          "type": "uint256"
        }
      ],
      "name": "addUIntValue",
      "outputs": [],
      "payable": false,
      "stateMutability": "nonpayable",
      "type": "function"
    },
    {
      "constant": false,
      "inputs": [
        {
          "name": "recordFieldName",
          "type": "bytes32"
        },
        {
          "name": "value",
          "type": "uint256"
        }
      ],
      "name": "subUIntValue",
      "outputs": [],
      "payable": false,
      "stateMutability": "nonpayable",
      "type": "function"
    },
    {
      "constant": false,
      "inputs": [
        {
          "name": "recordFieldName",
          "type": "bytes32"
        }
      ],
      "name": "deleteUIntValue",
      "outputs": [],
      "payable": false,
      "stateMutability": "nonpayable",
      "type": "function"
    },
    {
      "constant": true,
      "inputs": [
        {
          "name": "recordFieldName",
          "type": "bytes32"
        }
      ],
      "name": "getUInt8Value",
      "outputs": [
        {
          "name": "",
          "type": "uint8"
        }
      ],
      "payable": false,
      "stateMutability": "view",
      "type": "function"
    },
    {
      "constant": false,
      "inputs": [
        {
          "name": "recordFieldName",
          "type": "bytes32"
        },
        {
          "name": "value",
          "type": "uint8"
        }
      ],
      "name": "setUInt8Value",
      "outputs": [],
      "payable": false,
      "stateMutability": "nonpayable",
      "type": "function"
    },
    {
      "constant": false,
      "inputs": [
        {
          "name": "recordFieldName",
          "type": "bytes32"
        }
      ],
      "name": "deleteUInt8Value",
      "outputs": [],
      "payable": false,
      "stateMutability": "nonpayable",
      "type": "function"
    },
    {
      "constant": true,
      "inputs": [
        {
          "name": "recordFieldName",
          "type": "bytes32"
        }
      ],
      "name": "getStringValue",
      "outputs": [
        {
          "name": "",
          "type": "string"
        }
      ],
      "payable": false,
      "stateMutability": "view",
      "type": "function"
    },
    {
      "constant": false,
      "inputs": [
        {
          "name": "recordFieldName",
          "type": "bytes32"
        },
        {
          "name": "value",
          "type": "string"
        }
      ],
      "name": "setStringValue",
      "outputs": [],
      "payable": false,
      "stateMutability": "nonpayable",
      "type": "function"
    },
    {
      "constant": false,
      "inputs": [
        {
          "name": "recordFieldName",
          "type": "bytes32"
        }
      ],
      "name": "deleteStringValue",
      "outputs": [],
      "payable": false,
      "stateMutability": "nonpayable",
      "type": "function"
    },
    {
      "constant": false,
      "inputs": [
        {
          "name": "contractAddress",
          "type": "address"
        }
      ],
      "name": "addPermittedContract",
      "outputs": [],
      "payable": false,
      "stateMutability": "nonpayable",
      "type": "function"
    },
    {
      "constant": false,
      "inputs": [
        {
          "name": "addresses",
          "type": "address[]"
        }
      ],
      "name": "addPermittedContracts",
      "outputs": [],
      "payable": false,
      "stateMutability": "nonpayable",
      "type": "function"
    },
    {
      "constant": false,
      "inputs": [
        {
          "name": "addresses",
          "type": "address"
        }
      ],
      "name": "removePermittedContract",
      "outputs": [],
      "payable": false,
      "stateMutability": "nonpayable",
      "type": "function"
    },
    {
      "constant": false,
      "inputs": [
        {
          "name": "addresses",
          "type": "address[]"
        }
      ],
      "name": "removePermittedContracts",
      "outputs": [],
      "payable": false,
      "stateMutability": "nonpayable",
      "type": "function"
    },
    {
      "constant": true,
      "inputs": [],
      "name": "permittedContractsCount",
      "outputs": [
        {
          "name": "count",
          "type": "uint256"
        }
      ],
      "payable": false,
      "stateMutability": "view",
      "type": "function"
    },
    {
      "constant": true,
      "inputs": [],
      "name": "getPermittedContracts",
      "outputs": [
        {
          "name": "addresses",
          "type": "address[]"
        }
      ],
      "payable": false,
      "stateMutability": "view",
      "type": "function"
    },
    {
      "constant": true,
      "inputs": [
        {
          "name": "recordFieldNames",
          "type": "bytes32[]"
        },
        {
          "name": "recordFieldTypes",
          "type": "uint8[]"
        }
      ],
      "name": "getObjectData",
      "outputs": [
        {
          "name": "items",
          "type": "uint256[]"
        },
        {
          "name": "strings",
          "type": "string"
        }
      ],
      "payable": false,
      "stateMutability": "view",
      "type": "function"
    },
    {
      "constant": true,
      "inputs": [
        {
          "name": "recordFieldTypes",
          "type": "uint8[]"
        }
      ],
      "name": "getCountOfIntegerTypes",
      "outputs": [
        {
          "name": "count",
          "type": "uint256"
        }
      ],
      "payable": false,
      "stateMutability": "pure",
      "type": "function"
    },
    {
      "constant": true,
      "inputs": [
        {
          "name": "recordFieldName",
          "type": "bytes32"
        },
        {
          "name": "uintType",
          "type": "uint8"
        }
      ],
      "name": "getCorrespondingIntegerValue",
      "outputs": [
        {
          "name": "",
          "type": "uint256"
        }
      ],
      "payable": false,
      "stateMutability": "view",
      "type": "function"
    },
    {
      "constant": true,
      "inputs": [
        {
          "name": "logicEntry",
          "type": "bool"
        }
      ],
      "name": "boolToUInt",
      "outputs": [
        {
          "name": "",
          "type": "uint256"
        }
      ],
      "payable": false,
      "stateMutability": "pure",
      "type": "function"
    }
  ],
  "bytecode": "0x608060405234801561001057600080fd5b5060008054600160a060020a0319163317808255604051600160a060020a039190911691907f8be0079c531659141344cd1fd0a4f28419497f9722a3daafe3b4186f6b6457e0908290a3611ead806100696000396000f3fe608060405234801561001057600080fd5b5060043610610290576000357c0100000000000000000000000000000000000000000000000000000000900480638267a9ee1161016e578063a77aa49e116100e0578063c9a52d2c116100a4578063c9a52d2c14610a21578063dc02511e14610a98578063f2fde38b14610b08578063f5074f4114610b2e578063f586606614610b54578063ffbd400b14610bcb57610290565b8063a77aa49e1461097b578063a98ad1991461099e578063ba69fcaa146109c4578063bdc963d8146109e1578063c8d1c017146109fe57610290565b80638f32d59b116101325780638f32d59b146108c55780638ffa9690146108e15780639007127b146108fe57806393fe42481461091b5780639420e58d14610938578063a209a29c1461095e57610290565b80638267a9ee146106fc57806382914e5d1461071957806383197ef01461089857806384d7c99d146108a05780638da5cb5b146108bd57610290565b80633836fe6e116102075780635a2bf25a116101cb5780635a2bf25a146105b25780636aebbbd9146105de5780636d38156f14610601578063715018a6146106a457806373fb35ee146106ac5780637a0e03ec146106c957610290565b80633836fe6e1461047657806344bfa56e1461049c5780634c77e5ba1461052e578063506d7d001461056757806352d2d83d1461058d57610290565b80630c55d925116102595780630c55d92514610396578063124f2418146103b357806325cf512d146103d057806326df61f6146103f35780633138ee5c146103fb5780633562fd201461045357610290565b8062a35aa214610295578063025ec81a146102b4578063043106c0146102e35780630489fa70146103005780630bd8515814610370575b600080fd5b6102b2600480360360208110156102ab57600080fd5b5035610bea565b005b6102d1600480360360208110156102ca57600080fd5b5035610c41565b60408051918252519081900360200190f35b6102b2600480360360208110156102f957600080fd5b5035610c56565b6102b26004803603602081101561031657600080fd5b81019060208101813564010000000081111561033157600080fd5b82018360208201111561034357600080fd5b8035906020019184602083028401116401000000008311171561036557600080fd5b509092509050610cc0565b6102b26004803603604081101561038657600080fd5b508035906020013560ff16610d2c565b6102b2600480360360208110156103ac57600080fd5b5035610d8d565b6102b2600480360360208110156103c957600080fd5b5035610de6565b6102b2600480360360408110156103e657600080fd5b5080359060200135610e36565b6102d1610e87565b610403610ee7565b60408051602080825283518183015283519192839290830191858101910280838360005b8381101561043f578181015183820152602001610427565b505050509050019250505060405180910390f35b6102b26004803603604081101561046957600080fd5b5080359060200135610fc8565b6102b26004803603602081101561048c57600080fd5b5035600160a060020a0316611019565b6104b9600480360360208110156104b257600080fd5b503561109a565b6040805160208082528351818301528351919283929083019185019080838360005b838110156104f35781810151838201526020016104db565b50505050905090810190601f1680156105205780820380516001836020036101000a031916815260200191505b509250505060405180910390f35b61054b6004803603602081101561054457600080fd5b503561113b565b60408051600160a060020a039092168252519081900360200190f35b6102d16004803603604081101561057d57600080fd5b508035906020013560ff16611156565b6102b2600480360360408110156105a357600080fd5b508035906020013515156111f4565b6102b2600480360360408110156105c857600080fd5b5080359060200135600160a060020a0316611253565b6102b2600480360360408110156105f457600080fd5b50803590602001356112cd565b6102d16004803603602081101561061757600080fd5b81019060208101813564010000000081111561063257600080fd5b82018360208201111561064457600080fd5b8035906020019184602083028401116401000000008311171561066657600080fd5b91908080602002602001604051908101604052809392919081815260200183836020028082843760009201919091525092955061133b945050505050565b6102b261137b565b61054b600480360360208110156106c257600080fd5b50356113e3565b6106e6600480360360208110156106df57600080fd5b503561140a565b6040805160ff9092168252519081900360200190f35b6102b26004803603602081101561071257600080fd5b503561141f565b6107db6004803603604081101561072f57600080fd5b81019060208101813564010000000081111561074a57600080fd5b82018360208201111561075c57600080fd5b8035906020019184602083028401116401000000008311171561077e57600080fd5b91939092909160208101903564010000000081111561079c57600080fd5b8201836020820111156107ae57600080fd5b803590602001918460208302840111640100000000831117156107d057600080fd5b50909250905061146f565b604051808060200180602001838103835285818151815260200191508051906020019060200280838360005b8381101561081f578181015183820152602001610807565b50505050905001838103825284818151815260200191508051906020019080838360005b8381101561085b578181015183820152602001610843565b50505050905090810190601f1680156108885780820380516001836020036101000a031916815260200191505b5094505050505060405180910390f35b6102b261166b565b6102b2600480360360208110156108b657600080fd5b503561168f565b61054b6116e6565b6108cd6116f5565b604080519115158252519081900360200190f35b6108cd600480360360208110156108f757600080fd5b5035611706565b6102d16004803603602081101561091457600080fd5b503561171b565b6102b26004803603602081101561093157600080fd5b503561172d565b6108cd6004803603602081101561094e57600080fd5b5035600160a060020a031661177d565b6104b96004803603602081101561097457600080fd5b5035611792565b6102b26004803603604081101561099157600080fd5b50803590602001356117fc565b6102b2600480360360208110156109b457600080fd5b5035600160a060020a031661184d565b6102b2600480360360208110156109da57600080fd5b503561187f565b6102d1600480360360208110156109f757600080fd5b50356118d5565b6102b260048036036040811015610a1457600080fd5b50803590602001356118e7565b6102b260048036036040811015610a3757600080fd5b81359190810190604081016020820135640100000000811115610a5957600080fd5b820183602082011115610a6b57600080fd5b80359060200191846001830284011164010000000083111715610a8d57600080fd5b50909250905061193f565b6102b260048036036020811015610aae57600080fd5b810190602081018135640100000000811115610ac957600080fd5b820183602082011115610adb57600080fd5b80359060200191846020830284011164010000000083111715610afd57600080fd5b50909250905061199d565b6102b260048036036020811015610b1e57600080fd5b5035600160a060020a0316611a70565b6102b260048036036020811015610b4457600080fd5b5035600160a060020a0316611a8a565b6102b260048036036040811015610b6a57600080fd5b81359190810190604081016020820135640100000000811115610b8c57600080fd5b820183602082011115610b9e57600080fd5b80359060200191846001830284011164010000000083111715610bc057600080fd5b509092509050611aa7565b6102d160048036036020811015610be157600080fd5b50351515611b89565b3360009081526002602052604090205460ff1680610c205750610c0b6116e6565b600160a060020a031633600160a060020a0316145b610c2957600080fd5b6000908152600460205260409020805460ff19169055565b6000818152600660205260409020545b919050565b3360009081526002602052604090205460ff1680610c8c5750610c776116e6565b600160a060020a031633600160a060020a0316145b610c9557600080fd5b6000908152600360205260409020805473ffffffffffffffffffffffffffffffffffffffff19169055565b610cc86116f5565b610cd157600080fd5b60005b81811015610d2757600060026000858585818110610cee57fe5b60209081029290920135600160a060020a0316835250810191909152604001600020805460ff1916911515919091179055600101610cd4565b505050565b3360009081526002602052604090205460ff1680610d625750610d4d6116e6565b600160a060020a031633600160a060020a0316145b610d6b57600080fd5b600091825260096020526040909120805460ff191660ff909216919091179055565b3360009081526002602052604090205460ff1680610dc35750610dae6116e6565b600160a060020a031633600160a060020a0316145b610dcc57600080fd5b6000818152600560205260408120610de391611d21565b50565b3360009081526002602052604090205460ff1680610e1c5750610e076116e6565b600160a060020a031633600160a060020a0316145b610e2557600080fd5b600090815260066020526040812055565b3360009081526002602052604090205460ff1680610e6c5750610e576116e6565b600160a060020a031633600160a060020a0316145b610e7557600080fd5b60009182526006602052604090912055565b6000805b600154811015610ee2576002600060018381548110610ea657fe5b6000918252602080832090910154600160a060020a0316835282019290925260400190205460ff1615610eda576001909101905b600101610e8b565b505b90565b6060610ef1610e87565b604051908082528060200260200182016040528015610f1a578160200160208202803883390190505b50905060005b600154811015610ee2576002600060018381548110610f3b57fe5b6000918252602080832090910154600160a060020a0316835282019290925260400190205460ff1615610fc05760018181548110610f7557fe5b9060005260206000200160009054906101000a9004600160a060020a0316828281518110610f9f57fe5b6020026020010190600160a060020a03169081600160a060020a0316815250505b600101610f20565b3360009081526002602052604090205460ff1680610ffe5750610fe96116e6565b600160a060020a031633600160a060020a0316145b61100757600080fd5b60009182526008602052604090912055565b6110216116f5565b61102a57600080fd5b600160a060020a03166000818152600260205260408120805460ff191660019081179091558054808201825591527fb10e2d527612073b26eecdfd717e6a320cf44b4afac2b0732d9fcbe2b7fa0cf601805473ffffffffffffffffffffffffffffffffffffffff19169091179055565b60008181526005602090815260409182902080548351601f600260001961010060018616150201909316929092049182018490048402810184019094528084526060939283018282801561112f5780601f106111045761010080835404028352916020019161112f565b820191906000526020600020905b81548152906001019060200180831161111257829003601f168201915b50505050509050919050565b600090815260036020526040902054600160a060020a031690565b60008160ff166001141561117c5761117561117084611706565b611b89565b90506111ee565b8160ff166002141561119b576111918361140a565b60ff1690506111ee565b8160ff16600314156111b057611175836118d5565b8160ff16600414156111d5576111c58361113b565b600160a060020a031690506111ee565b8160ff16600514156111ea5761117583610c41565b5060005b92915050565b3360009081526002602052604090205460ff168061122a57506112156116e6565b600160a060020a031633600160a060020a0316145b61123357600080fd5b600091825260046020526040909120805460ff1916911515919091179055565b3360009081526002602052604090205460ff168061128957506112746116e6565b600160a060020a031633600160a060020a0316145b61129257600080fd5b600091825260036020526040909120805473ffffffffffffffffffffffffffffffffffffffff1916600160a060020a03909216919091179055565b3360009081526002602052604090205460ff168061130357506112ee6116e6565b600160a060020a031633600160a060020a0316145b61130c57600080fd5b6000828152600860205260409020546113259082611ba1565b6000928352600860205260409092209190915550565b6000805b82518110156113755782818151811061135457fe5b602002602001015160ff1660071461136d576001820191505b60010161133f565b50919050565b6113836116f5565b61138c57600080fd5b60008054604051600160a060020a03909116907f8be0079c531659141344cd1fd0a4f28419497f9722a3daafe3b4186f6b6457e0908390a36000805473ffffffffffffffffffffffffffffffffffffffff19169055565b600181815481106113f057fe5b600091825260209091200154600160a060020a0316905081565b60009081526009602052604090205460ff1690565b3360009081526002602052604090205460ff168061145557506114406116e6565b600160a060020a031633600160a060020a0316145b61145e57600080fd5b600090815260076020526040812055565b60608060006114b085858080602002602001604051908101604052809392919081815260200183836020028082843760009201919091525061133b92505050565b905060008487816114bd57fe5b0490508181026040519080825280602002602001820160405280156114ec578160200160208202803883390190505b5093506000805b8281101561165e5760005b8781101561160957818802810189898381811061151757fe5b9050602002013560ff1660ff16600714156115b15761156761155261154d8e8e8581811061154157fe5b90506020020135611792565b611bb6565b61155b89611bb6565b9063ffffffff611bdb16565b96506115aa6115526040518060400160405280601181526020017f3636362d2d4554482d5655452d2d363636000000000000000000000000000000815250611bb6565b9650611600565b6115e28c8c838181106115c057fe5b905060200201358b8b858181106115d357fe5b9050602002013560ff16611156565b8885815181106115ee57fe5b60209081029190910101526001909301925b506001016114fe565b5061165461164b6040518060400160405280601681526020017f3636362d2d4554482d5655452d4c4953542d2d36363600000000000000000000815250611bb6565b61155b87611bb6565b94506001016114f3565b5050505094509492505050565b6116736116f5565b61167c57600080fd5b6116846116e6565b600160a060020a0316ff5b3360009081526002602052604090205460ff16806116c557506116b06116e6565b600160a060020a031633600160a060020a0316145b6116ce57600080fd5b6000908152600960205260409020805460ff19169055565b600054600160a060020a031690565b600054600160a060020a0316331490565b60009081526004602052604090205460ff1690565b60009081526007602052604090205490565b3360009081526002602052604090205460ff1680611763575061174e6116e6565b600160a060020a031633600160a060020a0316145b61176c57600080fd5b600090815260086020526040812055565b60026020526000908152604090205460ff1681565b6000818152600a602090815260409182902080548351601f600260001961010060018616150201909316929092049182018490048402810184019094528084526060939283018282801561112f5780601f106111045761010080835404028352916020019161112f565b3360009081526002602052604090205460ff1680611832575061181d6116e6565b600160a060020a031633600160a060020a0316145b61183b57600080fd5b60009182526007602052604090912055565b6118556116f5565b61185e57600080fd5b600160a060020a03166000908152600260205260409020805460ff19169055565b3360009081526002602052604090205460ff16806118b557506118a06116e6565b600160a060020a031633600160a060020a0316145b6118be57600080fd5b6000818152600a60205260408120610de391611d21565b60009081526008602052604090205490565b3360009081526002602052604090205460ff168061191d57506119086116e6565b600160a060020a031633600160a060020a0316145b61192657600080fd5b6000828152600860205260409020546113259082611c4f565b3360009081526002602052604090205460ff168061197557506119606116e6565b600160a060020a031633600160a060020a0316145b61197e57600080fd5b6000838152600560205260409020611997908383611d65565b50505050565b6119a56116f5565b6119ae57600080fd5b60005b81811015610d27576001600260008585858181106119cb57fe5b90506020020135600160a060020a0316600160a060020a0316600160a060020a0316815260200190815260200160002060006101000a81548160ff0219169083151502179055506001838383818110611a2057fe5b8354600181810186556000958652602095869020909101805473ffffffffffffffffffffffffffffffffffffffff1916600160a060020a03969093029490940135949094161790915550016119b1565b611a786116f5565b611a8157600080fd5b610de381611c68565b611a926116f5565b611a9b57600080fd5b80600160a060020a0316ff5b3360009081526002602052604090205460ff1680611add5750611ac86116e6565b600160a060020a031633600160a060020a0316145b611ae657600080fd5b611b66611b2883838080601f016020809104026020016040519081016040528093929190818152602001838380828437600092019190915250611bb692505050565b61155b6040518060400160405280600181526020017f5e00000000000000000000000000000000000000000000000000000000000000815250611bb6565b6000848152600a6020908152604090912082516119979391929190910190611ddf565b60008115611b9957506001610c51565b506000610c51565b600082821115611bb057600080fd5b50900390565b611bbe611e4d565b506040805180820190915281518152602082810190820152919050565b60608082600001518460000151016040519080825280601f01601f191660200182016040528015611c13576020820181803883390190505b5090506000602082019050611c318186602001518760000151611ce3565b845160208501518551611c479284019190611ce3565b509392505050565b600082820183811015611c6157600080fd5b9392505050565b600160a060020a038116611c7b57600080fd5b60008054604051600160a060020a03808516939216917f8be0079c531659141344cd1fd0a4f28419497f9722a3daafe3b4186f6b6457e091a36000805473ffffffffffffffffffffffffffffffffffffffff1916600160a060020a0392909216919091179055565b5b60208110611d03578151835260209283019290910190601f1901611ce4565b905182516020929092036101000a6000190180199091169116179052565b50805460018160011615610100020316600290046000825580601f10611d475750610de3565b601f016020900490600052602060002090810190610de39190611e67565b828054600181600116156101000203166002900490600052602060002090601f016020900481019282601f10611da65782800160ff19823516178555611dd3565b82800160010185558215611dd3579182015b82811115611dd3578235825591602001919060010190611db8565b50610ee2929150611e67565b828054600181600116156101000203166002900490600052602060002090601f016020900481019282601f10611e2057805160ff1916838001178555611dd3565b82800160010185558215611dd3579182015b82811115611dd3578251825591602001919060010190611e32565b604051806040016040528060008152602001600081525090565b610ee491905b80821115610ee25760008155600101611e6d56fea165627a7a72305820b6714c042b42ec5377cdeb75ff85789120ee58997a6566bfe722c44687b37c750029",
  "source": "pragma solidity ^0.5.0;\n\nimport './zeppelin/lifecycle/Destructible.sol';\nimport \"./zeppelin/math/SafeMath.sol\";\nimport \"./lib/arachnid/solidity-stringutils/strings.sol\";\n\ncontract DB is Destructible {\n  using strings for *;\n\n  address[] public permittedContractsAddresses;\n  mapping(address => bool) public permissionStatusForContract;\n\n  // DB implemented as bytes32 mappings\n  mapping(bytes32 => address) AddressDataStore;\n  mapping(bytes32 => bool) BoolDataStore;\n  mapping(bytes32 => bytes) BytesDataStore;\n  mapping(bytes32 => bytes32) Bytes32DataStore;\n  mapping(bytes32 => int) IntDataStore;\n  mapping(bytes32 => uint) UIntDataStore;\n  mapping(bytes32 => uint8) UInt8DataStore;\n  mapping(bytes32 => string) StringDataStore;\n\n  modifier onlyPermittedContractOrOwner {\n    require(permissionStatusForContract[msg.sender] || msg.sender == owner());\n    _;\n  }\n\n  constructor () public { }\n\n  // AddressDataStore\n  function getAddressValue (bytes32 recordFieldName) public view returns (address) {\n    return AddressDataStore[recordFieldName];\n  }\n\n  function setAddressValue (bytes32 recordFieldName, address value) external\n    onlyPermittedContractOrOwner\n  {\n    AddressDataStore[recordFieldName] = value;\n  }\n\n  function deleteAddressValue (bytes32 recordFieldName) external\n    onlyPermittedContractOrOwner\n  {\n    delete AddressDataStore[recordFieldName];\n  }\n\n  // BoolDataStore\n  function getBoolValue (bytes32 recordFieldName) public view returns (bool) {\n    return BoolDataStore[recordFieldName];\n  }\n\n  function setBoolValue (bytes32 recordFieldName, bool value) external\n    onlyPermittedContractOrOwner\n  {\n    BoolDataStore[recordFieldName] = value;\n  }\n\n  function deleteBoolValue (bytes32 recordFieldName) external\n    onlyPermittedContractOrOwner\n  {\n    delete BoolDataStore[recordFieldName];\n  }\n\n  // BytesDataStore\n  function getBytesValue (bytes32 recordFieldName) public view returns (bytes memory) {\n    return BytesDataStore[recordFieldName];\n  }\n\n  function setBytesValue (bytes32 recordFieldName, bytes calldata value) external\n    onlyPermittedContractOrOwner\n  {\n    BytesDataStore[recordFieldName] = value;\n  }\n\n  function deleteBytesValue (bytes32 recordFieldName) external\n    onlyPermittedContractOrOwner\n  {\n    delete BytesDataStore[recordFieldName];\n  }\n\n  // Bytes32DataStore\n  function getBytes32Value (bytes32 recordFieldName) public view returns (bytes32) {\n    return Bytes32DataStore[recordFieldName];\n  }\n\n  function setBytes32Value (bytes32 recordFieldName, bytes32 value) external\n    onlyPermittedContractOrOwner\n  {\n    Bytes32DataStore[recordFieldName] = value;\n  }\n\n  function deleteBytes32Value (bytes32 recordFieldName) external\n    onlyPermittedContractOrOwner\n  {\n    delete Bytes32DataStore[recordFieldName];\n  }\n\n  // IntDataStore\n  function getIntValue (bytes32 recordFieldName) public view returns (int) {\n    return IntDataStore[recordFieldName];\n  }\n\n  function setIntValue (bytes32 recordFieldName, int value) external\n    onlyPermittedContractOrOwner\n  {\n    IntDataStore[recordFieldName] = value;\n  }\n\n  function deleteIntValue (bytes32 recordFieldName) external\n    onlyPermittedContractOrOwner\n  {\n    delete IntDataStore[recordFieldName];\n  }\n\n  // UIntDataStore\n  function getUIntValue (bytes32 recordFieldName) public view returns (uint) {\n    return UIntDataStore[recordFieldName];\n  }\n\n  function setUIntValue (bytes32 recordFieldName, uint value) public\n    onlyPermittedContractOrOwner\n  {\n    UIntDataStore[recordFieldName] = value;\n  }\n\n  function addUIntValue (bytes32 recordFieldName, uint value) external\n    onlyPermittedContractOrOwner\n  {\n    UIntDataStore[recordFieldName] = SafeMath.add(UIntDataStore[recordFieldName], value);\n  }\n\n  function subUIntValue (bytes32 recordFieldName, uint value) external\n    onlyPermittedContractOrOwner\n  {\n    UIntDataStore[recordFieldName] = SafeMath.sub(UIntDataStore[recordFieldName], value);\n  }\n\n  function deleteUIntValue (bytes32 recordFieldName) external\n    onlyPermittedContractOrOwner\n  {\n    delete UIntDataStore[recordFieldName];\n  }\n\n  // UInt8DataStore\n  function getUInt8Value (bytes32 recordFieldName) public view returns (uint8){\n    return UInt8DataStore[recordFieldName];\n  }\n\n  function setUInt8Value (bytes32 recordFieldName, uint8 value) public\n    onlyPermittedContractOrOwner\n  {\n    UInt8DataStore[recordFieldName] = value;\n  }\n\n  function deleteUInt8Value (bytes32 recordFieldName) external\n    onlyPermittedContractOrOwner\n  {\n    delete UInt8DataStore[recordFieldName];\n  }\n\n  // StringDataStore\n  function getStringValue (bytes32 recordFieldName) public view returns (string memory) {\n    return StringDataStore[recordFieldName];\n  }\n\n  function setStringValue (bytes32 recordFieldName, string calldata value) external\n    onlyPermittedContractOrOwner\n  {\n    StringDataStore[recordFieldName] = \"^\".toSlice().concat(value.toSlice());\n  }\n\n  function deleteStringValue (bytes32 recordFieldName) external\n    onlyPermittedContractOrOwner\n  {\n    delete StringDataStore[recordFieldName];\n  }\n\n  // DB Utilities\n\n  function addPermittedContract (address contractAddress) external\n  onlyOwner {\n    permissionStatusForContract[contractAddress] = true;\n    permittedContractsAddresses.push(contractAddress);\n  }\n\n  function addPermittedContracts (address[] calldata addresses) external\n  onlyOwner {\n    for (uint i = 0; i < addresses.length; i++) {\n      permissionStatusForContract[addresses[i]] = true;\n      permittedContractsAddresses.push(addresses[i]);\n    }\n  }\n\n  function removePermittedContract (address addresses) external\n  onlyOwner {\n    permissionStatusForContract[addresses] = false;\n  }\n\n  function removePermittedContracts (address[] calldata addresses) external\n  onlyOwner {\n    for (uint i = 0; i < addresses.length; i++) {\n      permissionStatusForContract[addresses[i]] = false;\n    }\n  }\n\n  function permittedContractsCount () public view returns (uint count) {\n    for (uint i = 0; i < permittedContractsAddresses.length; i++) {\n      if (permissionStatusForContract[permittedContractsAddresses[i]]) {\n        count++;\n      }\n    }\n\n    return count;\n  }\n\n  function getPermittedContracts () external view returns (address[] memory addresses) {\n    addresses = new address[](permittedContractsCount());\n    for (uint i = 0; i < permittedContractsAddresses.length; i++) {\n      if (permissionStatusForContract[permittedContractsAddresses[i]]) {\n        addresses[i] = permittedContractsAddresses[i];\n      }\n    }\n\n    return addresses;\n  }\n\n  // Fetch Data\n  function getObjectData (bytes32[] calldata recordFieldNames, uint8[] calldata recordFieldTypes)\n    external view returns\n  (\n    uint[] memory items,\n    string memory strings\n  )\n  {\n    uint countOfIntegerTypes = getCountOfIntegerTypes(recordFieldTypes);\n    /*\n      objectsCount gives the number of entities we're basing the search on. Search may be needed for several entities for which recordFieldTypes[] is the same for all of them. E.g. get the name, email, gender, and state of 5 people:\n      recordFieldNames: [\n        keccak256(\"user/name\", \"0x9838cdba...\"), keccak256(\"user/email\", \"0x9838cdba...\"), keccak256(\"user/gender\", \"0x9838cdba...\"), keccak256(\"user/state\", \"0x9838cdba...\"),\n\n        keccak256(\"user/name\", \"0xabc63533...\"), keccak256(\"user/email\", \"0xabc63533...\"), keccak256(\"user/gender\", \"0xabc63533...\"), keccak256(\"user/state\", \"0xabc63533...\"),\n\n        keccak256(\"user/name\", \"0x08253befd...\"), keccak256(\"user/email\", \"0x08253befd...\"), keccak256(\"user/gender\", \"0x08253befd...\"), keccak256(\"user/state\", \"0x08253befd...\"),\n\n        keccak256(\"user/name\", \"0x0b6354a...\"), keccak256(\"user/email\", \"0x0b6354a...\"), keccak256(\"user/gender\", \"0x0b6354a...\"), keccak256(\"user/state\", \"0x0b6354a...\"),\n\n        keccak256(\"user/name\", \"0x07352bac36...\"), keccak256(\"user/email\", \"0x07352bac36...\"), keccak256(\"user/gender\", \"0x07352bac36...\"), keccak256(\"user/state\", \"0x07352bac36...\")\n\n      ],\n      recordFieldTypes: [7, 7, 5, 3]\n      In this case, recordFieldNames.length = 20, recordFieldTypes.length = 4 => objectsCount = 5 [the search is being done for 5 entities]\n    */\n    uint objectsCount = recordFieldNames.length / recordFieldTypes.length;\n    items = new uint[](objectsCount * countOfIntegerTypes);\n    uint k;\n    for (uint i = 0; i < objectsCount; i++) {\n      for (uint j = 0; j < recordFieldTypes.length; j++) {\n        uint r_i = (i * recordFieldTypes.length) + j;\n        if (recordFieldTypes[j] == 7) {\n          strings = strings.toSlice().concat(getStringValue(recordFieldNames[r_i]).toSlice());\n          strings = strings.toSlice().concat(\"666--ETH-VUE--666\".toSlice());\n        } else {\n          items[k] = getCorrespondingIntegerValue(recordFieldNames[r_i], recordFieldTypes[j]);\n          k++;\n        }\n      }\n      strings = strings.toSlice().concat(\"666--ETH-VUE-LIST--666\".toSlice());\n    }\n\n    return (items, strings);\n  }\n\n  function getCountOfIntegerTypes (uint8[] memory recordFieldTypes) public pure returns (uint count) {\n    count = 0;\n    for (uint i = 0; i < recordFieldTypes.length ; i++) {\n      if (recordFieldTypes[i] != 7) { // recordFieldType 7 is for strings\n        count += 1;\n      }\n    }\n\n    return count;\n  }\n\n  function getCorrespondingIntegerValue (bytes32 recordFieldName, uint8 uintType) public view returns (uint) {\n    // recordFieldTypes: 1 => bool, 2 => uint8, 3 => uint, 4 => address, 5 => bytes32, 7 => string\n    if (uintType == 1) {\n      return boolToUInt(getBoolValue(recordFieldName));\n    } else if (uintType == 2) {\n      return uint(getUInt8Value(recordFieldName));\n    } else if (uintType == 3) {\n      return getUIntValue(recordFieldName);\n    } else if (uintType == 4) {\n      return uint(getAddressValue(recordFieldName));\n    } else if (uintType == 5) {\n      return uint(getBytes32Value(recordFieldName));\n    } else {\n      return 0;\n    }\n  }\n\n  function boolToUInt (bool logicEntry) public pure returns (uint) {\n    if (logicEntry) {\n      return 1;\n    } else {\n      return 0;\n    }\n  }\n}\n",
  "sourcePath": "/home/dh206382/dev/eth-vue/contracts/DB.sol",
  "compiler": {
    "name": "solc",
    "version": "0.5.8+commit.23d335f2.Emscripten.clang"
  },
  "schemaVersion": "3.3.2",
  "updatedAt": "2020-11-08T15:50:36.225Z",
  "networkType": "ethereum",
  "devdoc": {
    "methods": {
      "destroy()": {
        "details": "Transfers the current balance to the owner and terminates the contract."
      },
      "isOwner()": {
        "return": "true if `msg.sender` is the owner of the contract."
      },
      "owner()": {
        "return": "the address of the owner."
      },
      "renounceOwnership()": {
        "details": "Allows the current owner to relinquish control of the contract."
      },
      "transferOwnership(address)": {
        "details": "Allows the current owner to transfer control of the contract to a newOwner.",
        "params": {
          "newOwner": "The address to transfer ownership to."
        }
      }
    }
  },
  "userdoc": {
    "methods": {
      "renounceOwnership()": {
        "notice": "Renouncing to ownership will leave the contract without an owner. It will not be possible to call the functions with the `onlyOwner` modifier anymore."
      }
    }
  }
}