{
  "contractName": "Setup",
  "abi": [
    {
      "inputs": [
        {
          "internalType": "address",
          "name": "_dbAddress",
          "type": "address"
        }
      ],
      "stateMutability": "nonpayable",
      "type": "constructor"
    },
    {
      "anonymous": false,
      "inputs": [
        {
          "indexed": true,
          "internalType": "address",
          "name": "previousOwner",
          "type": "address"
        },
        {
          "indexed": true,
          "internalType": "address",
          "name": "newOwner",
          "type": "address"
        }
      ],
      "name": "OwnershipTransferred",
      "type": "event"
    },
    {
      "inputs": [],
      "name": "dbAddress",
      "outputs": [
        {
          "internalType": "address",
          "name": "",
          "type": "address"
        }
      ],
      "stateMutability": "view",
      "type": "function",
      "constant": true
    },
    {
      "inputs": [],
      "name": "destroy",
      "outputs": [],
      "stateMutability": "nonpayable",
      "type": "function"
    },
    {
      "inputs": [
        {
          "internalType": "address payable",
          "name": "_recipient",
          "type": "address"
        }
      ],
      "name": "destroyAndSend",
      "outputs": [],
      "stateMutability": "nonpayable",
      "type": "function"
    },
    {
      "inputs": [],
      "name": "isOwner",
      "outputs": [
        {
          "internalType": "bool",
          "name": "",
          "type": "bool"
        }
      ],
      "stateMutability": "view",
      "type": "function",
      "constant": true
    },
    {
      "inputs": [],
      "name": "owner",
      "outputs": [
        {
          "internalType": "address payable",
          "name": "",
          "type": "address"
        }
      ],
      "stateMutability": "view",
      "type": "function",
      "constant": true
    },
    {
      "inputs": [],
      "name": "renounceOwnership",
      "outputs": [],
      "stateMutability": "nonpayable",
      "type": "function"
    },
    {
      "inputs": [
        {
          "internalType": "address payable",
          "name": "newOwner",
          "type": "address"
        }
      ],
      "name": "transferOwnership",
      "outputs": [],
      "stateMutability": "nonpayable",
      "type": "function"
    },
    {
      "inputs": [],
      "name": "setConfig",
      "outputs": [],
      "stateMutability": "nonpayable",
      "type": "function"
    }
  ],
  "bytecode": "0x608060405234801561001057600080fd5b506040516106063803806106068339818101604052602081101561003357600080fd5b505160008054600160a060020a0319163317808255604051600160a060020a039190911691907f8be0079c531659141344cd1fd0a4f28419497f9722a3daafe3b4186f6b6457e0908290a3600160a060020a03811661009157600080fd5b60018054600160a060020a031916600160a060020a0392909216919091179055610546806100c06000396000f3fe608060405234801561001057600080fd5b50600436106100a5576000357c0100000000000000000000000000000000000000000000000000000000900480638f32d59b116100785780638f32d59b146100e857806391e06b6d14610104578063f2fde38b1461010c578063f5074f4114610132576100a5565b8063715018a6146100aa57806383197ef0146100b45780638b673e7a146100bc5780638da5cb5b146100c4575b600080fd5b6100b2610158565b005b6100b26101c0565b6100b26101e4565b6100cc61042c565b60408051600160a060020a039092168252519081900360200190f35b6100f061043b565b604080519115158252519081900360200190f35b6100cc61044c565b6100b26004803603602081101561012257600080fd5b5035600160a060020a031661045b565b6100b26004803603602081101561014857600080fd5b5035600160a060020a0316610478565b61016061043b565b61016957600080fd5b60008054604051600160a060020a03909116907f8be0079c531659141344cd1fd0a4f28419497f9722a3daafe3b4186f6b6457e0908390a36000805473ffffffffffffffffffffffffffffffffffffffff19169055565b6101c861043b565b6101d157600080fd5b6101d961042c565b600160a060020a0316ff5b6101ec61043b565b6101f557600080fd5b6001546040805160e560020a6301ab17e90281527ffdee3f0a67e1c0905d1d1b9edcca1bfcfb20fa50983fd6ec98ed3c4ec9ab87786004820152603260248201529051600160a060020a0390921691633562fd209160448082019260009290919082900301818387803b15801561026b57600080fd5b505af115801561027f573d6000803e3d6000fd5b50506001546040805160e560020a6301ab17e90281527f27939fccc16d3a632345caa25742703dad1ced4093cdf33a23b64dcf70b4e01d6004820152600260248201529051600160a060020a039092169350633562fd20925060448082019260009290919082900301818387803b1580156102f957600080fd5b505af115801561030d573d6000803e3d6000fd5b50506001546040805160e560020a6301ab17e90281527ff63344a14ef1f301f2ea2358926e73002ff132dff3be673f4bfbe98e83699fde6004820152605060248201529051600160a060020a039092169350633562fd20925060448082019260009290919082900301818387803b15801561038757600080fd5b505af115801561039b573d6000803e3d6000fd5b50506001546040805160e560020a6301ab17e90281527f11612b38ec30ac4f2241d9b322e33f7794d006d5981c6b43ff273a52c6fc051b60048201526000602482018190529151600160a060020a039093169450633562fd2093506044808201939182900301818387803b15801561041257600080fd5b505af1158015610426573d6000803e3d6000fd5b50505050565b600054600160a060020a031690565b600054600160a060020a0316331490565b600154600160a060020a031681565b61046361043b565b61046c57600080fd5b61047581610495565b50565b61048061043b565b61048957600080fd5b80600160a060020a0316ff5b600160a060020a0381166104a857600080fd5b60008054604051600160a060020a03808516939216917f8be0079c531659141344cd1fd0a4f28419497f9722a3daafe3b4186f6b6457e091a36000805473ffffffffffffffffffffffffffffffffffffffff1916600160a060020a039290921691909117905556fea2646970667358221220c84ebf092a0237e4dddc1f3369bb0ea85baf8c309d3c85ce3f20bdb302ac2ebc64736f6c63430007040033",
  "immutableReferences": {},
  "source": "// SPDX-License-Identifier: GPL-3.0\npragma solidity >=0.7.0 <0.8.0;\n\nimport \"./DB.sol\";\n\n/**\n * The Setup contract contains configuration logic\n */\ncontract Setup is Destructible {\n  address public dbAddress;\n\n  constructor (address _dbAddress) {\n    require(_dbAddress != address(0x0));\n    dbAddress = _dbAddress;\n  }\n\n  function setConfig ()\n    external\n    onlyOwner\n  {\n    DB(dbAddress).setUIntValue(keccak256('config/max-user-name-length'), 50);\n    DB(dbAddress).setUIntValue(keccak256('config/min-user-name-length'), 2);\n    DB(dbAddress).setUIntValue(keccak256('config/max-user-email-length'), 80);\n    DB(dbAddress).setUIntValue(keccak256('config/min-user-email-length'), 0);\n  }\n}\n",
  "sourcePath": "/home/dh206382/dev/eth-vue/contracts/Setup.sol",
  "compiler": {
    "name": "solc",
    "version": "0.7.4+commit.3f05b770.Emscripten.clang"
  },
  "schemaVersion": "3.3.2",
  "updatedAt": "2020-11-09T23:50:33.352Z",
  "networkType": "ethereum",
  "devdoc": {
    "kind": "dev",
    "methods": {
      "destroy()": {
        "details": "Transfers the current balance to the owner and terminates the contract."
      },
      "isOwner()": {
        "returns": {
          "_0": "true if `msg.sender` is the owner of the contract."
        }
      },
      "owner()": {
        "returns": {
          "_0": "the address of the owner."
        }
      },
      "renounceOwnership()": {
        "details": "Allows the current owner to relinquish control of the contract."
      },
      "transferOwnership(address)": {
        "details": "Allows the current owner to transfer control of the contract to a newOwner.",
        "params": {
          "newOwner": "The address to transfer ownership to."
        }
      }
    },
    "version": 1
  },
  "userdoc": {
    "kind": "user",
    "methods": {
      "renounceOwnership()": {
        "notice": "Renouncing to ownership will leave the contract without an owner. It will not be possible to call the functions with the `onlyOwner` modifier anymore."
      }
    },
    "notice": "The Setup contract contains configuration logic",
    "version": 1
  }
}