{
  "contractName": "Setup",
  "abi": [
    {
      "constant": false,
      "inputs": [],
      "name": "renounceOwnership",
      "outputs": [],
      "payable": false,
      "stateMutability": "nonpayable",
      "type": "function"
    },
    {
      "constant": false,
      "inputs": [],
      "name": "destroy",
      "outputs": [],
      "payable": false,
      "stateMutability": "nonpayable",
      "type": "function"
    },
    {
      "constant": true,
      "inputs": [],
      "name": "owner",
      "outputs": [
        {
          "name": "",
          "type": "address"
        }
      ],
      "payable": false,
      "stateMutability": "view",
      "type": "function"
    },
    {
      "constant": true,
      "inputs": [],
      "name": "isOwner",
      "outputs": [
        {
          "name": "",
          "type": "bool"
        }
      ],
      "payable": false,
      "stateMutability": "view",
      "type": "function"
    },
    {
      "constant": true,
      "inputs": [],
      "name": "dbAddress",
      "outputs": [
        {
          "name": "",
          "type": "address"
        }
      ],
      "payable": false,
      "stateMutability": "view",
      "type": "function"
    },
    {
      "constant": false,
      "inputs": [
        {
          "name": "newOwner",
          "type": "address"
        }
      ],
      "name": "transferOwnership",
      "outputs": [],
      "payable": false,
      "stateMutability": "nonpayable",
      "type": "function"
    },
    {
      "constant": false,
      "inputs": [
        {
          "name": "_recipient",
          "type": "address"
        }
      ],
      "name": "destroyAndSend",
      "outputs": [],
      "payable": false,
      "stateMutability": "nonpayable",
      "type": "function"
    },
    {
      "inputs": [
        {
          "name": "_dbAddress",
          "type": "address"
        }
      ],
      "payable": false,
      "stateMutability": "nonpayable",
      "type": "constructor"
    },
    {
      "anonymous": false,
      "inputs": [
        {
          "indexed": true,
          "name": "previousOwner",
          "type": "address"
        },
        {
          "indexed": true,
          "name": "newOwner",
          "type": "address"
        }
      ],
      "name": "OwnershipTransferred",
      "type": "event"
    },
    {
      "constant": false,
      "inputs": [],
      "name": "setConfig",
      "outputs": [],
      "payable": false,
      "stateMutability": "nonpayable",
      "type": "function"
    }
  ],
  "bytecode": "0x608060405234801561001057600080fd5b5060405160208061062d8339810180604052602081101561003057600080fd5b505160008054600160a060020a0319163317808255604051600160a060020a039190911691907f8be0079c531659141344cd1fd0a4f28419497f9722a3daafe3b4186f6b6457e0908290a3600160a060020a03811661008e57600080fd5b60018054600160a060020a031916600160a060020a0392909216919091179055610570806100bd6000396000f3fe608060405234801561001057600080fd5b50600436106100a5576000357c0100000000000000000000000000000000000000000000000000000000900480638f32d59b116100785780638f32d59b146100e857806391e06b6d14610104578063f2fde38b1461010c578063f5074f4114610132576100a5565b8063715018a6146100aa57806383197ef0146100b45780638b673e7a146100bc5780638da5cb5b146100c4575b600080fd5b6100b2610158565b005b6100b26101c0565b6100b26101e4565b6100cc610460565b60408051600160a060020a039092168252519081900360200190f35b6100f061046f565b604080519115158252519081900360200190f35b6100cc610480565b6100b26004803603602081101561012257600080fd5b5035600160a060020a031661048f565b6100b26004803603602081101561014857600080fd5b5035600160a060020a03166104ac565b61016061046f565b61016957600080fd5b60008054604051600160a060020a03909116907f8be0079c531659141344cd1fd0a4f28419497f9722a3daafe3b4186f6b6457e0908390a36000805473ffffffffffffffffffffffffffffffffffffffff19169055565b6101c861046f565b6101d157600080fd5b6101d9610460565b600160a060020a0316ff5b6101ec61046f565b6101f557600080fd5b600154604080517f636f6e6669672f6d61782d757365722d6e616d652d6c656e67746800000000008152815190819003601b01812060e560020a6301ab17e90282526004820152603260248201529051600160a060020a0390921691633562fd209160448082019260009290919082900301818387803b15801561027857600080fd5b505af115801561028c573d6000803e3d6000fd5b5050600154604080517f636f6e6669672f6d696e2d757365722d6e616d652d6c656e67746800000000008152815190819003601b01812060e560020a6301ab17e90282526004820152600260248201529051600160a060020a039092169350633562fd20925060448082019260009290919082900301818387803b15801561031357600080fd5b505af1158015610327573d6000803e3d6000fd5b5050600154604080517f636f6e6669672f6d61782d757365722d656d61696c2d6c656e677468000000008152815190819003601c01812060e560020a6301ab17e90282526004820152605060248201529051600160a060020a039092169350633562fd20925060448082019260009290919082900301818387803b1580156103ae57600080fd5b505af11580156103c2573d6000803e3d6000fd5b5050600154604080517f636f6e6669672f6d696e2d757365722d656d61696c2d6c656e677468000000008152815190819003601c01812060e560020a6301ab17e902825260048201526000602482018190529151600160a060020a039093169450633562fd2093506044808201939182900301818387803b15801561044657600080fd5b505af115801561045a573d6000803e3d6000fd5b50505050565b600054600160a060020a031690565b600054600160a060020a0316331490565b600154600160a060020a031681565b61049761046f565b6104a057600080fd5b6104a9816104c9565b50565b6104b461046f565b6104bd57600080fd5b80600160a060020a0316ff5b600160a060020a0381166104dc57600080fd5b60008054604051600160a060020a03808516939216917f8be0079c531659141344cd1fd0a4f28419497f9722a3daafe3b4186f6b6457e091a36000805473ffffffffffffffffffffffffffffffffffffffff1916600160a060020a039290921691909117905556fea165627a7a723058207930c6b0fbb6e9cf4e122f90bdd015561412d5f20ed88985a17057838f24ebf50029",
  "source": "pragma solidity ^0.5.0;\n\nimport \"./DB.sol\";\n\n/**\n * The Setup contract contains configuration logic\n */\ncontract Setup is Destructible {\n  address public dbAddress;\n\n  constructor (address _dbAddress) public {\n    require(_dbAddress != address(0x0));\n    dbAddress = _dbAddress;\n  }\n\n  function setConfig ()\n    external\n    onlyOwner\n  {\n    DB(dbAddress).setUIntValue(keccak256('config/max-user-name-length'), 50);\n    DB(dbAddress).setUIntValue(keccak256('config/min-user-name-length'), 2);\n    DB(dbAddress).setUIntValue(keccak256('config/max-user-email-length'), 80);\n    DB(dbAddress).setUIntValue(keccak256('config/min-user-email-length'), 0);\n  }\n}\n",
  "sourcePath": "/home/dh206382/dev/eth-vue/contracts/Setup.sol",
  "compiler": {
    "name": "solc",
    "version": "0.5.8+commit.23d335f2.Emscripten.clang"
  },
  "schemaVersion": "3.3.2",
  "updatedAt": "2020-11-08T15:51:19.807Z",
  "networkType": "ethereum",
  "devdoc": {
    "methods": {
      "destroy()": {
        "details": "Transfers the current balance to the owner and terminates the contract."
      },
      "isOwner()": {
        "return": "true if `msg.sender` is the owner of the contract."
      },
      "owner()": {
        "return": "the address of the owner."
      },
      "renounceOwnership()": {
        "details": "Allows the current owner to relinquish control of the contract."
      },
      "transferOwnership(address)": {
        "details": "Allows the current owner to transfer control of the contract to a newOwner.",
        "params": {
          "newOwner": "The address to transfer ownership to."
        }
      }
    }
  },
  "userdoc": {
    "methods": {
      "renounceOwnership()": {
        "notice": "Renouncing to ownership will leave the contract without an owner. It will not be possible to call the functions with the `onlyOwner` modifier anymore."
      }
    },
    "notice": "The Setup contract contains configuration logic"
  }
}