{
  "contractName": "UserAuthManager",
  "abi": [
    {
      "inputs": [
        {
          "internalType": "address",
          "name": "_dbAddress",
          "type": "address"
        }
      ],
      "stateMutability": "nonpayable",
      "type": "constructor"
    },
    {
      "anonymous": false,
      "inputs": [
        {
          "indexed": true,
          "internalType": "address",
          "name": "previousOwner",
          "type": "address"
        },
        {
          "indexed": true,
          "internalType": "address",
          "name": "newOwner",
          "type": "address"
        }
      ],
      "name": "OwnershipTransferred",
      "type": "event"
    },
    {
      "anonymous": false,
      "inputs": [
        {
          "indexed": true,
          "internalType": "address",
          "name": "_userAddress",
          "type": "address"
        },
        {
          "indexed": false,
          "internalType": "bool",
          "name": "isSetUp",
          "type": "bool"
        }
      ],
      "name": "SetUser",
      "type": "event"
    },
    {
      "inputs": [],
      "name": "dbAddress",
      "outputs": [
        {
          "internalType": "address",
          "name": "",
          "type": "address"
        }
      ],
      "stateMutability": "view",
      "type": "function",
      "constant": true
    },
    {
      "inputs": [],
      "name": "destroy",
      "outputs": [],
      "stateMutability": "nonpayable",
      "type": "function"
    },
    {
      "inputs": [
        {
          "internalType": "address payable",
          "name": "_recipient",
          "type": "address"
        }
      ],
      "name": "destroyAndSend",
      "outputs": [],
      "stateMutability": "nonpayable",
      "type": "function"
    },
    {
      "inputs": [],
      "name": "isOwner",
      "outputs": [
        {
          "internalType": "bool",
          "name": "",
          "type": "bool"
        }
      ],
      "stateMutability": "view",
      "type": "function",
      "constant": true
    },
    {
      "inputs": [],
      "name": "owner",
      "outputs": [
        {
          "internalType": "address payable",
          "name": "",
          "type": "address"
        }
      ],
      "stateMutability": "view",
      "type": "function",
      "constant": true
    },
    {
      "inputs": [],
      "name": "renounceOwnership",
      "outputs": [],
      "stateMutability": "nonpayable",
      "type": "function"
    },
    {
      "inputs": [
        {
          "internalType": "address payable",
          "name": "newOwner",
          "type": "address"
        }
      ],
      "name": "transferOwnership",
      "outputs": [],
      "stateMutability": "nonpayable",
      "type": "function"
    },
    {
      "inputs": [
        {
          "internalType": "string",
          "name": "firstName",
          "type": "string"
        },
        {
          "internalType": "string",
          "name": "lastName",
          "type": "string"
        },
        {
          "internalType": "string",
          "name": "email",
          "type": "string"
        },
        {
          "internalType": "bytes32",
          "name": "gravatar",
          "type": "bytes32"
        }
      ],
      "name": "setUser",
      "outputs": [],
      "stateMutability": "nonpayable",
      "type": "function"
    },
    {
      "inputs": [],
      "name": "login",
      "outputs": [
        {
          "internalType": "bool",
          "name": "",
          "type": "bool"
        }
      ],
      "stateMutability": "view",
      "type": "function",
      "constant": true
    }
  ],
  "bytecode": "0x608060405234801561001057600080fd5b5060405161148a38038061148a8339818101604052602081101561003357600080fd5b505160008054600160a060020a0319163317808255604051600160a060020a039190911691907f8be0079c531659141344cd1fd0a4f28419497f9722a3daafe3b4186f6b6457e0908290a3600160a060020a03811661009157600080fd5b60018054600160a060020a031916600160a060020a03929092169190911790556113ca806100c06000396000f3fe608060405234801561001057600080fd5b50600436106100975760003560e060020a900480638f32d59b1161006a5780638f32d59b146101e657806391e06b6d14610202578063b34e97e81461020a578063f2fde38b14610212578063f5074f411461023857610097565b8063715018a61461009c57806383197ef0146100a6578063851aea7a146100ae5780638da5cb5b146101c2575b600080fd5b6100a461025e565b005b6100a46102c6565b6100a4600480360360808110156100c457600080fd5b8101906020810181356401000000008111156100df57600080fd5b8201836020820111156100f157600080fd5b8035906020019184600183028401116401000000008311171561011357600080fd5b91939092909160208101903564010000000081111561013157600080fd5b82018360208201111561014357600080fd5b8035906020019184600183028401116401000000008311171561016557600080fd5b91939092909160208101903564010000000081111561018357600080fd5b82018360208201111561019557600080fd5b803590602001918460018302840111640100000000831117156101b757600080fd5b9193509150356102ea565b6101ca6103e1565b60408051600160a060020a039092168252519081900360200190f35b6101ee6103f0565b604080519115158252519081900360200190f35b6101ca610401565b6101ee610410565b6100a46004803603602081101561022857600080fd5b5035600160a060020a031661042e565b6100a46004803603602081101561024e57600080fd5b5035600160a060020a031661044b565b6102666103f0565b61026f57600080fd5b60008054604051600160a060020a03909116907f8be0079c531659141344cd1fd0a4f28419497f9722a3daafe3b4186f6b6457e0908390a36000805473ffffffffffffffffffffffffffffffffffffffff19169055565b6102ce6103f0565b6102d757600080fd5b6102df6103e1565b600160a060020a0316ff5b600154604080516020601f8a018190048102820181019092528881526103a192600160a060020a0316913391908b908b908190840183828082843760009201919091525050604080516020601f8d018190048102820181019092528b815292508b91508a908190840183828082843760009201919091525050604080516020601f8c018190048102820181019092528a815292508a9150899081908401838280828437600092019190915250899250610468915050565b6040805160018152905133917f6648b859e158f53470fd0dc1bf91fcede20e1eb2d71db770236d145353b08a60919081900360200190a250505050505050565b600054600160a060020a031690565b600054600160a060020a0316331490565b600154600160a060020a031681565b60015460009061042990600160a060020a031633610a6f565b905090565b6104366103f0565b61043f57600080fd5b61044881610a92565b50565b6104536103f0565b61045c57600080fd5b80600160a060020a0316ff5b600061047b61047686610b0d565b610b32565b9050600061048b61047686610b0d565b9050600061049b61047686610b0d565b905060006104de8a6040518060400160405280601b81526020017f636f6e6669672f6d61782d757365722d6e616d652d6c656e6774680000000000815250610bdf565b905060006105218b6040518060400160405280601b81526020017f636f6e6669672f6d696e2d757365722d6e616d652d6c656e6774680000000000815250610bdf565b905060006105648c6040518060400160405280601c81526020017f636f6e6669672f6d61782d757365722d656d61696c2d6c656e67746800000000815250610bdf565b905060006105a78d6040518060400160405280601c81526020017f636f6e6669672f6d696e2d757365722d656d61696c2d6c656e67746800000000815250610bdf565b90508387111580156105b95750828710155b6105c257600080fd5b8386111580156105d25750828610155b6105db57600080fd5b8185111580156105eb5750808510155b6105f457600080fd5b6105fe8d8d610cc8565b8c600160a060020a031663f58660668d60405160200180807f757365722f66697273742d6e616d650000000000000000000000000000000000815250600f0182600160a060020a03166c01000000000000000000000000028152601401915050604051602081830303815290604052805190602001208d6040518363ffffffff1660e060020a0281526004018083815260200180602001828103825283818151815260200191508051906020019080838360005b838110156106ca5781810151838201526020016106b2565b50505050905090810190601f1680156106f75780820380516001836020036101000a031916815260200191505b509350505050600060405180830381600087803b15801561071757600080fd5b505af115801561072b573d6000803e3d6000fd5b505050508c600160a060020a031663f58660668d60405160200180807f757365722f6c6173742d6e616d65000000000000000000000000000000000000815250600e0182600160a060020a03166c01000000000000000000000000028152601401915050604051602081830303815290604052805190602001208c6040518363ffffffff1660e060020a0281526004018083815260200180602001828103825283818151815260200191508051906020019080838360005b838110156107fb5781810151838201526020016107e3565b50505050905090810190601f1680156108285780820380516001836020036101000a031916815260200191505b509350505050600060405180830381600087803b15801561084857600080fd5b505af115801561085c573d6000803e3d6000fd5b505050508c600160a060020a031663f58660668d60405160200180807f757365722f656d61696c00000000000000000000000000000000000000000000815250600a0182600160a060020a03166c01000000000000000000000000028152601401915050604051602081830303815290604052805190602001208b6040518363ffffffff1660e060020a0281526004018083815260200180602001828103825283818151815260200191508051906020019080838360005b8381101561092c578181015183820152602001610914565b50505050905090810190601f1680156109595780820380516001836020036101000a031916815260200191505b509350505050600060405180830381600087803b15801561097957600080fd5b505af115801561098d573d6000803e3d6000fd5b505050508c600160a060020a03166325cf512d8d60405160200180807f757365722f677261766174617200000000000000000000000000000000000000815250600d0182600160a060020a03166c01000000000000000000000000028152601401915050604051602081830303815290604052805190602001208a6040518363ffffffff1660e060020a0281526004018083815260200182815260200192505050600060405180830381600087803b158015610a4857600080fd5b505af1158015610a5c573d6000803e3d6000fd5b5050505050505050505050505050505050565b6000610a7b8383610eef565b15610a8857506001610a8c565b5060005b92915050565b600160a060020a038116610aa557600080fd5b60008054604051600160a060020a03808516939216917f8be0079c531659141344cd1fd0a4f28419497f9722a3daafe3b4186f6b6457e091a36000805473ffffffffffffffffffffffffffffffffffffffff1916600160a060020a0392909216919091179055565b610b1561137a565b506040805180820190915281518152602082810190820152919050565b60208101518151600091601e1980820192909101015b80821015610bd857815160ff166080811015610b6957600183019250610bcc565b60e08160ff161015610b8057600283019250610bcc565b60f08160ff161015610b9757600383019250610bcc565b60f88160ff161015610bae57600483019250610bcc565b60fc8160ff161015610bc557600583019250610bcc565b6006830192505b50600190920191610b48565b5050919050565b600082600160a060020a031663bdc963d8836040516020018082805190602001908083835b60208310610c235780518252601f199092019160209182019101610c04565b6001836020036101000a038019825116818451168082178552505050505050905001915050604051602081830303815290604052805190602001206040518263ffffffff1660e060020a0281526004018082815260200191505060206040518083038186803b158015610c9557600080fd5b505afa158015610ca9573d6000803e3d6000fd5b505050506040513d6020811015610cbf57600080fd5b50519392505050565b610cd28282610eef565b610eeb5781600160a060020a0316633562fd208260405160200180807f757365722f637265617465642d6f6e0000000000000000000000000000000000815250600f0182600160a060020a03166c0100000000000000000000000002815260140191505060405160208183030381529060405280519060200120426040518363ffffffff1660e060020a0281526004018083815260200182815260200192505050600060405180830381600087803b158015610d8d57600080fd5b505af1158015610da1573d6000803e3d6000fd5b5050505081600160a060020a0316630bd851588260405160200180807f757365722f737461747573000000000000000000000000000000000000000000815250600b0182600160a060020a03166c010000000000000000000000000281526014019150506040516020818303038152906040528051906020012060016040518363ffffffff1660e060020a0281526004018083815260200182815260200192505050600060405180830381600087803b158015610e5d57600080fd5b505af1158015610e71573d6000803e3d6000fd5b50505050610eeb826040518060400160405280600981526020017f75736572732f69647300000000000000000000000000000000000000000000008152506040518060400160405280600b81526020017f75736572732f636f756e7400000000000000000000000000000000000000000081525084610f07565b5050565b600080610efc84846112cb565b60ff16119392505050565b600084600160a060020a031663bdc963d8846040516020018082805190602001908083835b60208310610f4b5780518252601f199092019160209182019101610f2c565b6001836020036101000a038019825116818451168082178552505050505050905001915050604051602081830303815290604052805190602001206040518263ffffffff1660e060020a0281526004018082815260200191505060206040518083038186803b158015610fbd57600080fd5b505afa158015610fd1573d6000803e3d6000fd5b505050506040513d6020811015610fe757600080fd5b50516040518551919250600160a060020a03871691635a2bf25a918791859160209081019182918501908083835b602083106110345780518252601f199092019160209182019101611015565b51815160209384036101000a60001901801990921691161790529201938452506040805180850381528483018083528151919093012063ffffffff871660e060020a029092526024840191909152600160a060020a038816604484015251606480840194506000939192509082900301818387803b1580156110b557600080fd5b505af11580156110c9573d6000803e3d6000fd5b5050505084600160a060020a0316633562fd2085846040516020018083805190602001908083835b602083106111105780518252601f1990920191602091820191016110f1565b6001836020036101000a03801982511681845116808217855250505050505090500182600160a060020a03166c01000000000000000000000000028152601401807f696e6465780000000000000000000000000000000000000000000000000000008152506005019250505060405160208183030381529060405280519060200120836040518363ffffffff1660e060020a0281526004018083815260200182815260200192505050600060405180830381600087803b1580156111d357600080fd5b505af11580156111e7573d6000803e3d6000fd5b5050505084600160a060020a0316633562fd20846040516020018082805190602001908083835b6020831061122d5780518252601f19909201916020918201910161120e565b6001836020036101000a03801982511681845116808217855250505050505090500191505060405160208183030381529060405280519060200120836001016040518363ffffffff1660e060020a0281526004018083815260200182815260200192505050600060405180830381600087803b1580156112ac57600080fd5b505af11580156112c0573d6000803e3d6000fd5b505050505050505050565b600082600160a060020a0316637a0e03ec8360405160200180807f757365722f737461747573000000000000000000000000000000000000000000815250600b0182600160a060020a03166c01000000000000000000000000028152601401915050604051602081830303815290604052805190602001206040518263ffffffff1660e060020a0281526004018082815260200191505060206040518083038186803b158015610c9557600080fd5b60405180604001604052806000815260200160008152509056fea2646970667358221220f66e211e2eab80efadc4944b0894a545e5f14b27b0154fead7854a1a65110a0a64736f6c63430007040033",
  "immutableReferences": {},
  "source": "// SPDX-License-Identifier: GPL-3.0\npragma solidity >=0.7.0 <0.8.0;\n\nimport './lib/userManager.sol';\nimport './DB.sol';\n\ncontract UserAuthManager is Destructible {\n  address public dbAddress;\n  event SetUser(address indexed _userAddress, bool isSetUp);\n\n  constructor (address _dbAddress) {\n    require(_dbAddress != address(0x0));\n    dbAddress = _dbAddress;\n  }\n\n  function setUser (\n    string calldata firstName,\n    string calldata lastName,\n    string calldata email,\n    bytes32 gravatar\n  )\n    external\n  {\n    userManager.setUser(dbAddress, msg.sender, firstName, lastName, email, gravatar);\n    emit SetUser(msg.sender, true);\n  }\n\n  function login ()\n    external\n    view\n    returns (bool)\n  {\n    return userManager.login(dbAddress, msg.sender);\n  }\n}\n",
  "sourcePath": "/home/dh206382/dev/eth-vue/contracts/UserAuthManager.sol",
  "compiler": {
    "name": "solc",
    "version": "0.7.4+commit.3f05b770.Emscripten.clang"
  },
  "schemaVersion": "3.3.2",
  "updatedAt": "2020-11-09T23:50:40.806Z",
  "networkType": "ethereum",
  "devdoc": {
    "kind": "dev",
    "methods": {
      "destroy()": {
        "details": "Transfers the current balance to the owner and terminates the contract."
      },
      "isOwner()": {
        "returns": {
          "_0": "true if `msg.sender` is the owner of the contract."
        }
      },
      "owner()": {
        "returns": {
          "_0": "the address of the owner."
        }
      },
      "renounceOwnership()": {
        "details": "Allows the current owner to relinquish control of the contract."
      },
      "transferOwnership(address)": {
        "details": "Allows the current owner to transfer control of the contract to a newOwner.",
        "params": {
          "newOwner": "The address to transfer ownership to."
        }
      }
    },
    "version": 1
  },
  "userdoc": {
    "kind": "user",
    "methods": {
      "renounceOwnership()": {
        "notice": "Renouncing to ownership will leave the contract without an owner. It will not be possible to call the functions with the `onlyOwner` modifier anymore."
      }
    },
    "version": 1
  }
}